:1000000019C020C01FC01EC01DC01CC01BC01AC00C
:1000100019C018C017C016C015C014C013C012C034
:1000200011C010C00FC00EC00DC00CC00BC00AC064
:1000300009C008C011241FBECFEFD4E0DEBFCDBF82
:100040000ED028C0DDCF8AB180668AB984B5836BB3
:1000500084BD85B5816085BD81E090E00895F3DFC2
:100060008AE087BD83E294EF0197F1F700C00000BA
:1000700084E190E002C08AE090E087BDE3E2F4EF23
:100080003197F1F700C000000A968F3F910509F003
:0800900094F7F3CFF894FFCFC1
:00000001FF
