S00F000054657374494E542E737265638A
S113000019C020C01FC01EC073C01CC01BC01AC0B2
S113001019C018C017C016C015C014C013C012C030
S113002011C010C00FC00EC00DC00CC00BC00AC060
S113003009C008C011241FBECFEFD4E0DEBFCDBF7E
S113004037D087C0DDCF87B18F6087B988B1807F13
S113005088B981E090E0089587B18F7C87B9ECE698
S1130060F0E0808180638083E8E6F0E08081826054
S1130070808381E090E008958230910559F08330C7
S1130080910571F0019789F4672B11F441980DC023
S1130090419A0BC0672B11F4429807C0429A05C0DD
S11300A0672B11F4439801C0439A81E090E00895CE
S11300B0CADFD2DF789461E070E081E090E0DCDFB9
S11300C02FE38DE093E0215080409040E1F700C0A1
S11300D0000060E070E081E090E0CEDF2FE38DE08F
S11300E093E0215080409040E1F700C00000E3CF4E
S11300F01F920F920FB60F9211242F933F934F9399
S11301005F936F937F938F939F93AF93BF93CF939B
S1130110EF93FF9366B1C6B1607170E082E090E046
S1130120ABDFC0726C2F70E083E090E0A5DFFF913D
S1130130EF91CF91BF91AF919F918F917F916F91EB
S11301405F914F913F912F910F900FBE0F901F9091
S10901501895F894FFCF9E
S9030000FC
