S0100000546573744C4544532E737265634C
S113000019C020C01FC01EC01DC01CC01BC01AC008
S113001019C018C017C016C015C014C013C012C030
S113002011C010C00FC00EC00DC00CC00BC00AC060
S113003009C008C011241FBECFEFD4E0DEBFCDBF7E
S11300400BD036C0DDCF87B18F6087B988B1807F90
S113005088B981E090E00895F6DF419A8FE493EC4B
S11300600197F1F700C00000429A8FE493EC0197E6
S1130070F1F700C00000439A8FE493EC0197F1F785
S113008000C0000041988FE493EC0197F1F700C0A1
S1130090000042988FE493EC0197F1F700C0000050
S11300A043988FE493EC0197F1F700C00000D5CF9B
S10700B0F894FFCFEE
S9030000FC
