S0100000546573744C4544532E737265634C
S113000019C028C027C026C025C038C023C022C0BC
S113001021C020C01FC01EC01DC01CC01BC01AC0F0
S113002019C018C017C016C015C014C013C012C020
S113003011C010C011241FBECFEFD4E0DEBFCDBF6E
S113004021E0A0E0B1E001C01D92A130B207E1F7C8
S1130050C9D0CEC0D5CF8130910539F487B58B3F57
S113006060F487B58B5F87BD0895019631F487B539
S1130070853018F087B5855087BD08951F920F927B
S11300800FB60F9211242F933F934F935F936F9367
S11300907F938F939F93AF93BF93CF93EF93FF93EC
S11300A0C9B1CC7080910001C81709F45CC080917B
S11300B00001811106C0C83021F481E090E0CBDF5B
S11300C045C080910001883031F4CC3021F481E0C6
S11300D090E0C1DF3BC0809100018C3031F4C4302A
S11300E021F481E090E0B7DF31C0809100018430D9
S11300F031F4C11104C081E090E0ADDF27C08091EC
S11301000001811106C0C43021F48FEF9FEFA3DFFB
S11301101DC080910001843031F4CC3021F48FEF84
S11301209FEF99DF13C0809100018C3031F4C83007
S113013021F48FEF9FEF8FDF09C080910001883099
S113014029F4C11103C08FEF9FEF85DFC093000135
S11301502F9A4A9B02C0449801C0449A4B9B02C008
S11301605F9801C05F9AFF91EF91CF91BF91AF91DA
S11301709F918F917F916F915F914F913F912F91BB
S11301800F900FBE0F901F901895279A3C9A579A7C
S11301902F9844985F9881E090E008958AB1837F16
S11301A08AB98BB18C608BB9EDE6F0E080818C600C
S11301B08083E8E6F0E080818460808381E090E0E1
S11301C00895569A14BC15BC84B5816084BD84B569
S11301D0806884BD84B58F7B84BD85B5826085BD10
S11301E017BC0895D2DFDADFECDF78942F98FECFC6
S10701F0F894FFCFAD
S9030000FC
